S017000050726A5F4B36304E3531325F4941522E73726563B0
S1130000F8FF0020110400009156000091560000F2
S11300109156000091560000915600009156000040
S11300209156000091560000915600009156000030
S11300309156000091560000915600009156000020
S11300409156000091560000915600009156000010
S11300509156000091560000915600009156000000
S113006091560000915600009156000091560000F0
S113007091560000915600009156000091560000E0
S113008091560000915600009156000091560000D0
S113009091560000915600009156000091560000C0
S11300A091560000915600009156000091560000B0
S11300B091560000915600009156000091560000A0
S11300C09156000091560000915600009156000090
S11300D09156000091560000915600009156000080
S11300E09156000091560000915600009156000070
S11300F09156000091560000915600009156000060
S1130100915600009156000091560000915600004F
S1130110915600009156000091560000915600003F
S1130120915600009156000091560000915600002F
S1130130915600009156000091560000915600001F
S1130140915600009156000091560000915600000F
S1130150196200009156000091560000915600006B
S113016091560000915600009156000091560000EF
S113017091560000915600009156000091560000DF
S113018091560000915600009156000091560000CF
S113019091560000915600009156000091560000BF
S11301A039620000C36200009156000061620000E1
S11301B0915600009156000091560000915600009F
S11301C0915600009156000091560000915600008F
S11301D0915600009156000091560000915600007F
S113041062B605F0F5FD0000DFF8500C016899B9EB
S11304204FF4803181604FF4805141604FF0FF31CF
S1130430C160016104214161DFF8341C0422C1F868
S1130440B821DFF8301C01600120704701F1080376
S113045013F007030FBF002301F10803C3F10803DE
S113046003F007035918D21A8161C26042F00103F4
S11304704B60511828224A60DFF8F01B0969C161FA
S113048070472DE9F84F054601F1080010F0070008
S11304900FBF002001F10800C0F1080000F00700C0
S11304A000EB010A02F1080010F007000FBF002062
S11304B002F10800C0F1080000F00700841803EB03
S11304C00A07A4EB0A00A0EB030843F00300CAF8F0
S11304D00400A74228BF01F0A1F92079C00758BF42
S11304E001F09CF9B8F1100F38BF01F097F9A86931
S11304F0844207D1E8684044E860AF6140F00100FD
S1130500786048E16869844208D1A8684044A860DA
S11305106F6140F001017960C0513CE1606800F016
S11305200301012940F09F80C008C00000904FEAF9
S1130530D00BBBF1200F2FD2D4F80890E668B44258
S113054008BF01F06BF94C4508BF01F067F960681A
S1130550C008C000B0EBCB0F18BF01F05FF9B14584
S113056006D12868012101FA0BF18843286077E05D
S113057005EBCB0000F12801894502D029698945A2
S11305806CD32830864202D02869864266D3C9F8E3
S11305900C60C6F8089063E0D4F81890E668A642A8
S11305A006D0A068296988421DD3C660B0601CE0EB
S11305B004F21400066836B904F110000668A6B106
S11305C001E00846066806F214010A68002A02BF20
S11305D006F110010A68002AF3D12969884224BF70
S11305E00021016001D201F019F9B9F1000F37D0EF
S11305F0E06905EB800000F2301001688C4209D1FB
S11306000660002E14D168680121E2699140884394
S1130610686025E02869814508D3D9F81000A04214
S113062014BFC9F81460C9F8106001E001F0F6F8CD
S1130630B6B12869864211D3C6F81890216929B148
S1130640814226BF31618E6101F0E8F8606938B1FA
S11306502969884224BF7061866101D201F0DEF805
S1130660009804198044606840084000606048F0C5
S11306700100786048F807804FEAD806202E1FD280
S113068005EBC60000F22804A146B8F1100F38BFEC
S113069001F0C4F80120B0402968014204BF0843B6
S11306A0286006D0A068296988422CBF814601F0E1
S11306B0B5F8A760C9F80C70C7F80890FC606AE048
S11306C05FEA182008BF002123D0B0F5803F28BF7F
S11306D01F211ED2A0F58071090C01F00801884089
S11306E0A0F58052120C02F004029040A0F5804361
S11306F01B0C03F00203C1F10E01891AC91A9840B8
S113070001EBD030C11D28FA01F101F0010101EB28
S1130710400105EB810000F23012F961002078619C
S11307203861012088406B68034204D11843686033
S11307301760BA611DE010681F290EBF0021490827
S1130740C1F1190108FA01F100E010464268D2082B
S1130750D200424510D0CA0F00EB820202F110030E
S113076049001A68002AF0D129698B4211D31F600D
S1130770B861FF60BF600EE081682A69904228BFBB
S1130780914206D3CF608760B960F8600020B861F9
S113079001E001F043F80AF10800BDE8F28F2DE909
S11307A0FE4F0446A56904F2BC1001688D4203D3D0
S11307B0426851188D4202D380680028F5D14168FF
S11307C000680E18A6F12F0000F1080111F00701CE
S11307D00FBF002100F10801C1F1080101F0070178
S11307E001EB000A05F11000824538BFAA460AF160
S11307F0080B0AF1180900270198A0F128020099B2
S11308002046FFF723FE1BF0070018BF01F006F88F
S11308101B20CAF8040004F2BC10B0E80E10ABE8C8
S11308200E10ABF110010098C4F8BC010198C4F893
S1130830C0010298C4F8C801C4F8C41100E081469C
S113084009F104000721C9F804107F1C011DB142FD
S1130850F5D3022FB8BF00F0E1FFAA4500F09C8059
S1130860AAEB050041194A68520852004A6040F058
S1130870010169604051C708202F1FD204EBC70152
S113088001F22806B046102838BF00F0C7FF012146
S113089001FA07F02168014204BF0843206006D032
S11308A0B068216988422CBF804600F0B7FFB5606C
S11308B0C8F80C50C5F80880EE606DE0010A08BF66
S11308C0002223D0B1F5803F28BF1F221ED2A1F5FC
S11308D08072120C02F008029140A1F580531B0CA7
S11308E003F004039940A1F58046360C06F0020695
S11308F0C2F10E02D21A921BB14002EBD131CA1DD1
S113090020FA02F202F0010202EB410204EB82013E
S113091001F23013EA6100216961296101219140EA
S113092066680E4205D141EA060060601D60AB6155
S11309301DE019681F2A0EBF00225208C2F11902D5
S113094000FA02F200E019464B68DB08DB00834240
S113095010D0D30F01EB830303F110065200336868
S1130960002BF0D12069864211D33560A961ED6076
S1130970AD6011E088682269914228BF904206D395
S1130980C5608D60A860E9600020A86104E003B040
S1130990BDE8F04F00F042BF03B0BDE8F08FF8B5FA
S11309A004460D46DFF8C466306808B9FFF734FD25
S11309B000F048FF01001CBF0A6811F1010F00F0AC
S11309C08A80D4F8B0011018C4F8B001D4F8B43156
S11309D0834238BF0346C4F8B431A06958BB2069C8
S11309E008B1814200D22161C4F8BC11C4F8C0210D
S11309F00020C4F8C801306860624FF0FF30206204
S1130A002046202300F22806F660B66008305B1EFC
S1130A10F8D1DFF85C06844208BF283A27D054F89E
S1130A20040CC00814EBC00008385118091AA1F1CD
S1130A30280201461BE004F2BC10034600E09B6858
S1130A40CBB15E681F68F619B142F8D11E7B360738
S1130A5011D4A669BE420ED3D3F804C06744BE4283
S1130A6009D202EB0C005860E0681218A169204614
S1130A70FFF7ECFC1EE02369994238BF216103466D
S1130A80501800E09B688BB11E688642FAD1187B2F
S1130A9000070BD4304619605E6892195A602B46E1
S1130AA00246204601B0BDE8F040EAE400232046B7
S1130AB0FFF775FEE06885420DD2401BE060A16936
S1130AC06A18A26140F00100506045F003004860DC
S1130AD001F10800F2BD0020F2BD2DE9F84F0546F2
S1130AE08B460024CBF100085FEA1B2008BF0020DE
S1130AF023D0B0F5803F28BF1F201ED2A0F58071FF
S1130B00090C01F008018840A0F58052120C02F093
S1130B1004029040A0F580431B0C03F00203C1F1D2
S1130B200E01891AC91A984001EBD030C11D2BFA65
S1130B3001F101F0010101EB400005EB8001D1F866
S1130B40301129B31F280EBF00224208C2F1190236
S1130B500BFA02F2002300E052004E68F608F60099
S1130B60A6EB0B06464504D20C46B046B8F1000F7E
S1130B700BD04E69D70F01EB87010969002E1CBF0A
S1130B808E4233460029E7D1194661BB002C3CD183
S1130B90012101FA00F0400041420843696808401D
S1130BA000F0618141420840411E080B00F0100032
S1130BB021FA00F2510901F00801CA40930803F038
S1130BC00403DA40560806F00206F240C2F3400776
S1130BD0081818183018384422FA07F1081805EBD9
S1130BE08000D0F8301181B100E001464868C008A7
S1130BF0C000A0EB0B0040453CBF80460C46086992
S1130C000028F2D149690029F0D1002C00F02B8191
S1130C10A868A0EB0B00804580F0258128698442F8
S1130C20C0F01F810BEB04060BEB08096068C008D9
S1130C30C000484518BF00F0F1FDB44280F01181B6
S1130C40D4F818A0E768A74206D0A06829698842AA
S1130C501DD3C760B8601CE004F21400076837B9FC
S1130C6004F110000768A7B101E00846076807F21D
S1130C7014010A68002A02BF07F110010A68002A59
S1130C80F3D12969884224BF0021016001D200F018
S1130C90C5FDBAF1000F37D0E06905EB800000F222
S1130CA0301001688C4208D10760A7B96868012137
S1130CB0E26991408843686026E02869824508D348
S1130CC0DAF81000A04214BFCAF81470CAF8107001
S1130CD001E000F0A3FDBFB12869874212D3C7F831
S1130CE018A0206930B12969884226BF386187611C
S1130CF000F094FD606938B12969884224BF7861A5
S1130D00876101D200F08AFDB8F1100F0BD249F0CF
S1130D100300606009EB0400416841F00101416097
S1130D2004F10800A0E04BF00300606048F001000B
S1130D30706048F806804FEAD800202820D205EBDE
S1130D40C00101F2280BD846012101FA00F02968FC
S1130D50014204BF0843286007D0DBF80800296972
S1130D6088422CBF804600F059FDCBF80860C8F8D3
S1130D700C60C6F80880C6F80CB004F1080073E0F3
S1130D805FEA182008BF002223D0B0F5803F28BFB7
S1130D901F221ED2A0F58071090C01F008018840C1
S1130DA0A0F58052120C02F004029040A0F580439A
S1130DB01B0C03F00203C1F10E01891AC91A9840F1
S1130DC001EBD030C11D28FA01F101F0010101EB62
S1130DD0400205EB820000F23010F26100217161E3
S1130DE03161012191406B680B4202BF1943696074
S1130DF006601CD000681F2A0EBF00215108C1F1F3
S1130E00190108FA01F100E010464268D208D20044
S1130E10424512D0CA0F00EB820202F110034900CE
S1130E201A68002AF0D129698B4215D31E60B0617B
S1130E30F660B66004F1080016E081682A69904201
S1130E4028BF914208D3CE608660B160F060002074
S1130E50B06104F1080007E000F0E0FC04F10800D0
S1130E6002E000F0DBFC0020BDE8F28F2DE9F84F32
S1130E7004468846606841420840411E080B00F061
S1130E801000C1404A0902F00802D1408B0803F067
S1130E900403D9404D0805F00205E940C1F34006BA
S1130EA01018181828443018F140081804EB800072
S1130EB0D0F8300106464168C908C900A1EB080A08
S1130EC009E008464168C908C900A1EB0801514579
S1130ED03CBF8A46064601690029F2D140690028D0
S1130EE0F0D120698642C0F0BC8008EB060B08EB09
S1130EF00A097068C008C000484518BF00F08EFC9D
S1130F005E4580F0AE80B569F768B74206D0B06838
S1130F10216988421DD3C760B8601CE006F2140042
S1130F20076837B906F110000768A7B101E0084661
S1130F30076807F214010A68002A02BF07F11001CA
S1130F400A68002AF3D12169884224BF0021016084
S1130F5001D200F063FC002D34D0F06904EB800072
S1130F6000F2301001688E4209D10760002F11D1C0
S1130F7060680121F26991408843606022E0206941
S1130F80854205D32869B04214BF6F612F6101E027
S1130F9000F044FCB7B12069874211D3BD613069C8
S1130FA030B12169884226BF3861876100F036FC80
S1130FB0706938B12169884224BF7861876101D2A0
S1130FC000F02CFCBAF1100F0BD249F00300706052
S1130FD009EB0600416841F00101416006F1080097
S1130FE042E048F0030070604AF00100CBF80400CE
S1130FF04AF80BA0D4F80880B8F1000F2AD0D4F82E
S113100014904FEAD805202D28BF00F007FC009566
S113101004EBC50000F228052F46B8F1100F38BFC5
S113102000F0FCFB0120009988402168014204BFC4
S11310300843206006D0A868216988422CBF07466F
S113104000F0ECFBC5F80890C7F80C90C9F80870DC
S1131050C9F80C50C4F808A0C4F814B006F108008C
S113106002E000F0DBFB0020BDE8F28FE80BFF1F7D
S1131070000CFF1F6859883C2DE9F04F83B00446EB
S1131080012000F00DFCF52C80F0F8800B2C31BF12
S1131090102704F10B00C008C700FE08DFF87847EA
S11310A02068F04010F003013ED0C04300F001007E
S11310B0861904EBC60000F22808D8F80850F70097
S11310C06868C008C000B84218BF00F0A7FBD5F894
S11310D00890454508BF00F0A1FB4D4508BF00F04E
S11310E09DFB6868C008C000B84218BF00F096FBBA
S11310F0C84505D120680121B1408843206008E03B
S11311002069814526BFC8F80890C9F80C8000F012
S113111085FB47F0030068607819416841F00101DC
S1131120416005F10804F7E0A168B94280F0BA8093
S1131130002800F09980012505FA06F14900B04025
S11311404A421143084041420840411E080B00F046
S11311501000C1404A0902F00802D1408B0803F094
S11311600403D9404E0806F00206F140C1F34008DA
S1131170101818183018404421FA08F101EB00083F
S113118004EBC80000F22809D9F808604FEAC80A3D
S11311907068C008C000504518BF00F03FFBD6F887
S11311A008B04E4508BF00F039FB5E4508BF00F0AB
S11311B035FB7068C008C000504518BF00F02EFB16
S11311C0D94505D1206805FA08F18843206008E074
S11311D02069834526BFC9F808B0CBF80C9000F00D
S11311E01DFBAAEB070847F003007060B8190090D4
S11311F048F001014160009848F80080A76867B38F
S1131200D4F814904FEAD70ABAF1200F28BF00F09F
S113121005FBCDF804A004EBCA0000F2280AD3466B
S1131220102F38BF00F0FAFA019805FA00F021688F
S1131230014204BF0843206007D0DAF8080021699E
S113124088422CBF834600F0E9FACAF80890CBF82C
S11312500C90C9F808B0C9F80CA0C4F8088000982C
S1131260606106F1080457E0606800283ED0394602
S11312702046FFF7FBFD040014D04DE014F1400FAD
S113128028BF4FF0FF370DD204F10B00C008C70090
S1131290DFF88445606828B139462046FFF71DFC15
S11312A0040039D1DFF87045A168B9421ED3CA1BC6
S11312B06069102A0CD339186161A26042F00103FD
S11312C04B60525047F00301416000F1080423E0F1
S11312D00022A260626141F00302426009184A6878
S11312E042F001024A6000F1080415E0E068874218
S11312F00DD2C01BE060A1697A18A26140F0010020
S1131300506047F00300486001F1080404E03946E6
S11313102046FFF744FB0446012000F0E5FA20468E
S1131320FFF73ABB2DE9F047002800F07182A0F1E5
S11313300804012000F0B4FADFF8DC542869844280
S1131340C0F05F82616801F00302012A00F0598253
S1131350CA084FEAC20808EB0409CA072DD4226858
S113136011F0030100F04F82904451420C19844261
S1131370C0F0478269698C4200F0D4804FEAD20AF7
S1131380BAF1200F6FD2A668E768BC4208BF00F02C
S113139045FAB44208BF00F041FA6068C008C000D2
S11313A0B0EBCA0F18BF00F039FABE4246D1286824
S11313B0012101FA0AF1884328604C4580F021821A
S11313C0D9F80400C10740F11C82810700F1728141
S11313D06969AA69914540F0BA80E8684044E860C8
S11313E0AC6140F0010262608C4202D1002169616B
S11313F0A960E969814280F00682DFF81804006878
S113140008B9FFF709F8A869002800F0FC81E96829
S113141029290BD305F2BC121368984203D35468EC
S1131420E318984202D39268002AF5D1E869884209
S113143080F0E9814FF0FF30E861E4E105EBCA0098
S113144000F128018E4202D029698E4208D3283047
S1131450874202D02869874202D3F760BE60ACE7B6
S113146000F0DCF9A9E7A669E768A74205D0A168FE
S113147081421CD3CF60B9601BE004F214010F68F1
S113148037B904F110010F689FB101E011460F68EC
S113149007F214021368002B02BF07F1100213684D
S11314A0002BF3D1814224BF0020086001D200F058
S11314B0B5F9002E3FF481AFE06905EB800000F23E
S11314C0301001688C4209D10760002F11D168687F
S11314D00121E2699140884368606EE72869864289
S11314E005D33069A04214BF7761376101E000F091
S11314F095F9002F3FF461AF28698742B0D3BE61EC
S1131500216929B1814226BF39618F6100F086F9D2
S1131510606900283FF451AF29698842A0D37861FB
S113152087614AE799F8040000F0030003287FF478
S113153044AFC5F80880D9F8040040084000C9F851
S1131540040048F00100606048F804805BE18945CC
S113155008D1A8684044A8606C6140F00101616052
S1131560005150E1C008C00080444FEAD00ABAF1EB
S1131570200F2FD2D9F80860D9F80C70B94508BFEC
S113158000F04CF9B14508BF00F048F9D9F804005F
S1131590C008C000B0EBCA0F18BF00F03FF9BE424C
S11315A006D12868012101FA0AF18843286076E00F
S11315B005EBCA0000F128018E4202D029698E424F
S11315C06BD32830874202D02869874265D3F760FD
S11315D0BE6064E0D9F81860D9F80C704F4507D0A4
S11315E0D9F80800296988421DD3C760B8601CE097
S11315F009F21400076837B909F110000768A7B1A8
S113160001E00846076807F214010A68002A02BFCD
S113161007F110010A68002AF3D12969884224BF1E
S11316200021016001D200F0F9F8002E37D0D9F87A
S11316301C0005EB800000F23010016889450AD1D6
S11316400760002F12D168680121D9F81C2091404D
S11316508843686023E02869864205D33069484599
S113166014BF7761376101E000F0D8F8BFB1286991
S1131670874212D3BE61D9F8101029B1814226BF26
S113168039618F6100F0CAF8D9F8140038B12969BA
S1131690884224BF7861876101D200F0BFF848F026
S11316A00100606048F80480686984420BD1C5F881
S11316B00880A8E040084000C9F8040048F0010090
S11316C0606048F804804FEAD807202F20D205EB49
S11316D0C70000F228094E46B8F1100F38BF00F0D9
S11316E09DF80120B8402968014204BF08432860DE
S11316F007D0D9F80800296988422CBF064600F0B3
S11317008DF8C9F80840F460A660C4F80C907AE03B
S11317105FEA182008BF002123D0B0F5803F28BF1E
S11317201F211ED2A0F58071090C01F00801884028
S1131730A0F58052120C02F004029040A0F5804300
S11317401B0C03F00203C1F10E01891AC91A984057
S113175001EBD030C11D28FA01F101F0010101EBC8
S1131760400105EB810000F23012E161002060616C
S11317702061012088406B68034204D118436860EB
S11317801460A2611DE010681F290EBF00214908E2
S1131790C1F1190108FA01F100E010464268D208CB
S11317A0D200424510D0CA0F00EB820202F11003AE
S11317B049001A68002AF0D129698B4211D31C60B0
S11317C0A061E460A4600EE081682A69904228BFA9
S11317D0914206D3CC608460A160E0600020A061E7
S11317E001E000F01BF8286A401E28620BD1D5F8EE
S11317F0C40110B180680028FCD14FF0FF3028628A
S113180001E000F00BF80120BDE8F04700F06CB8EF
S1131810BDE8F087E80BFF1F000CFF1F012000F05C
S11318206FB850F8041B61B150F8042BD30744BFC0
S1131830A9F101039A18002342F8043B091FFAD1C5
S1131840EFE770470649086808B10020704705486B
S113185008600549C908C900091A0160704700BF3A
S1131860D40DFF1F200EFF1F2010FF1F10B5234CA7
S11318702068A0B1201D00F04EF804F1080000F02B
S11318804AF804F10C0000F046F804F1100000F0EE
S113189042F804F11400BDE8104000F03CB810BD5B
S11318A038B50446154D286890B9281D00F032F863
S11318B005F1080000F02EF805F10C0000F02AF8FC
S11318C005F1100000F026F805F1140000F022F8EC
S11318D001202860052C06D205EB8400001DBDE81C
S11318E0324000F019B831BD052805D2034901EB97
S11318F08000001D00F011B870470000D80DFF1FD4
S113190080B5C046C046024A11001820ABBEFBE7B2
S113191026000200704770477047704738B50024AE
S113192041F2883001F07AF8DFF88C0B0078002857
S113193052D1DFF8880B007800281DD1DFF8800B26
S11319400068DFF87C1BDFF87C2B12680A60DFF884
S1131950741B0860DFF8700BDFF8681D096801600C
S1131960DFF8580B01210170DFF8600B0088401C80
S1131970DFF8581B0880A0E0DFF8540B01F04EF8A4
S11319800025DFF8440B0168DFF8380B006801F02C
S1131990EDF90400E4B2002C04D06D1C2800C0B2A0
S11319A00328EED3DFF8180B0068DFF8141BDFF808
S11319B0142B12680A60DFF80C1B0860DFF8080BB0
S11319C0DFF8001D09680160DFF8080B0088401C7F
S11319D0DFF8001B088070E0DFF8E00A00780028D8
S11319E019D10025DFF8DC0C0168DFF8D40A00689F
S11319F001F0BCF90400E4B2002C04D06D1C2800F2
S1131A00C0B20328EED3DFF8D00A0088401CDFF808
S1131A10C81A088051E00025DFF8AC0A0168DFF835
S1131A20A40A006801F0A2F90400E4B2002C04D076
S1131A306D1C2800C0B20328EED34FF47A6000F086
S1131A40EDFFDFF8740A0078002819D1DFF8700A76
S1131A500068DFF86C1ADFF86C2A12680A60DFF895
S1131A60641A0860DFF8600ADFF8581C096801602E
S1131A70DFF8680A0088401CDFF8601A08801CE060
S1131A80DFF8380A002101700025DFF8380C0168FE
S1131A90DFF82C0A006801F069F90400E4B2002CB4
S1131AA004D06D1C2800C0B20328EED3DFF8C80CA4
S1131AB00088401CDFF8C01C08802000C0B232BD82
S1131AC010B500200024DFF8F4190978002917D094
S1131AD0DFF8FC0900F0A2FFDFF8EC090168DFF889
S1131AE0E409006801F042F9C0B2002804D0641C83
S1131AF02000C0B20528EFD3DFF8C009002101702F
S1131B0010BD00002DE9F041002400250027002627
S1131B105FF00008DFF8B00B0168DFF8640C01F037
S1131B20F4F872B6DFF8A41B4AF202620A80DFF806
S1131B309C1B4BF280420A80DFF8941B0978002931
S1131B4000D062B66D1CC0B2002802D0ADB2642DC4
S1131B50E0D30025DFF8280C007800282ED10024DB
S1131B6008E0A4B2DFF8180CA4B2DFF8681B615CCB
S1131B702154641CA4B2202CF3D3DFF84C0B01686D
S1131B80DFF8FC0B01F0F2F8002817D04FF47A705C
S1131B90ADB2854212D272B6DFF8300B4AF202615E
S1131BA00180DFF8280B4BF280410180DFF8200B25
S1131BB00078002800D062B66D1CDEE7002400E047
S1131BC0641CDFF8140B0078A4B280B2844280F065
S1131BD09180DFF8F40A006810FA84F1DFF8A00BB2
S1131BE001F093F872B6DFF8E41A4AF202620A804E
S1131BF0DFF8D81A4BF280420A80DFF8D41A097849
S1131C00002900D062B66D1CC0B2002802D0ADB26B
S1131C10642DDED3002500201FE080B2DFF8601BB6
S1131C204118C97980B2DFF8582B821892790A23B7
S1131C305A4352FA81F180B2DFF8442B8218527968
S1131C40642303FB021141F2D042891A1FFA88F877
S1131C5089B2884500D2884620304FF4007180B2A2
S1131C608842ADD256EA070189B2002905D180B273
S1131C70DFF80C1B415C002905D080B2DFF8001BA3
S1131C80415CE52901D126000700002101220FE073
S1131C9089B211FA80F3DFF8E8CA13F80C3089B27C
S1131CA0DFF8D8CA11F80CC0634500D00022491CE3
S1131CB089B20529ECD392B2002ACDD080B2DFF8E4
S1131CC0C01A411849793039C9B20A29C4D280B23C
S1131CD0DFF8AC1A411889793039C9B20A29BBD264
S1131CE080B2DFF89C1A4118C9793039C9B20A297F
S1131CF093D3B1E757EA060080B2002802D100F07E
S1131D000DFEECE0DFF8C009006810FA86F1DFF898
S1131D10700A00F0FAFF72B6DFF8B0194AF20262F4
S1131D200A80DFF8A8194BF280420A80DFF8A01974
S1131D300978002900D062B66D1CC0B2002802D018
S1131D40ADB2642DDED300251FFA88F818F1010026
S1131D500A2190FBF1F201FB12003030DFF81C1A6B
S1131D60C8711FFA88F818F101000A2190FBF1F0FC
S1131D700A2190FBF1F201FB12003030DFF8FC196C
S1131D8088711FFA88F818F10100642190FBF1F0C2
S1131D903030DFF8E8194871DFF8E8090068000C12
S1131DA0C2B2DFF8E0090068002400210DE0A4B20B
S1131DB014FA87F2DFF8C83989B2DFF8C0C911F81C
S1131DC00CC002F803C0641C491CA4B20B2CEED353
S1131DD000210DE0A4B214FA87F2DFF8A43989B225
S1131DE0DFF8A4C911F80CC002F803C0641C491C34
S1131DF0A4B21A2CEED3BFB2DFF88419791888760E
S1131E00BFB2DFF87C19791880B2000AC876DFF80F
S1131E107C090088DFF878190988DFF8BC28127873
S1131E205143DFF87029128811FA82F1490211FA3C
S1131E3080F0DFF864190860DFF850090088002892
S1131E4007D0DFF854090068B0F50070DFF84819CE
S1131E500860BFB2DFF828093818DFF83C190968B0
S1131E600177BFB2DFF818093818DFF82C190968B0
S1131E70090A4177BFB2DFF808093818DFF81819E2
S1131E800968090C8177BFB2DFF8F4083818DFF865
S1131E9008190968090EC17711E072B6DFF82C0839
S1131EA04AF202610180DFF824084BF2804101808C
S1131EB0DFF81C080078002800D062B66D1CDFF83B
S1131EC00808006810FA86F1DFF8B40800F04EFF45
S1131ED0002804D04FF47A70ADB28542DDD3BDE85A
S1131EE0F08100002DE9F047002700265FF000088C
S1131EF0DFF89C080588DFF89C080088002800D0DB
S1131F006D1C5FF000094C46DFF878080068000E8D
S1131F10DFF888180870DFF86C0800685FEA002AA8
S1131F205FEA1A2A002625E072B6DFF8A0074AF213
S1131F3002610180DFF894074BF280410180DFF8F1
S1131F4090070078002800D062B618F10108DFF885
S1131F50500800683918DFF8280800F007FF002847
S1131F6005D04FF47A701FFA88F88045DCD35FF00F
S1131F700008761CB6B2ADB2AE4280F0F9805FEADA
S1131F80DA10B84202D1B6B2002E75D1B6B2002E24
S1131F9013D14AE072B6DFF834074AF202610180D5
S1131FA0DFF828074BF280410180DFF8240700782E
S1131FB0002800D062B618F10108DFF8E8070068CD
S1131FC03918DFF8BC0700F0D1FE002805D04FF423
S1131FD07A701FFA88F88045DCD35FF0000812E0BD
S1131FE072B6DFF8E8064AF202610180DFF8DC0627
S1131FF04BF280410180DFF8D8060078002800D039
S113200062B618F10108DFF8980700683918DFF89C
S1132010700700F0ABFE002805D04FF47A701FFA69
S113202088F88045DCD35FF000085FEADA17DFF850
S1132030740700683918DFF8480700F066FE72B6C6
S1132040DFF888164AF202620A80DFF880164BF243
S113205080420A80DFF878160978002900D062B639
S113206018F10108C0B2002804D01FFA88F8B8F1AA
S1132070640FDCD35FF000081AF07F008000641C5A
S1132080DFF818170978A4B289B28C4217D100245A
S113209019F10101894689B2DFF8E82652F82110C6
S11320A0090EDFF8F82611701FFA89F9DFF8D41643
S11320B051F829105FEA012A5FEA1A2A01E01AF1AD
S11320C0010A80B2DFF8B81600F801A080B2DFF888
S11320D0B01641185FEA1A224A7080B2DFF8A016DF
S11320E041185FEA1A428A70B6B2ADB2691E8E42D6
S11320F07FF43FAF80B2DFF88816FF22425480B2EB
S1132100DFF87C164118FF224A7080B2DFF870169F
S11321104118FF228A7080B2DFF8641640180F213C
S1132120C17012E072B6DFF8A4054AF202610180C0
S1132130DFF898054BF280410180DFF894050078C0
S1132140002800D062B618F10108DFF858060068CC
S11321503918DFF82C0600F009FE002805D04FF4EA
S11321607A701FFA88F88045DCD35FF00008EEE649
S1132170BDE8F08710B5002411E072B6DFF84C0515
S11321804AF202610180DFF844054BF2804101808C
S1132190DFF83C050078002800D062B6641CFFF725
S11321A0BDFB002804D04FF49670A4B28442E4D35B
S11321B0DFF8E0050088401CDFF8D8150880DFF858
S11321C01815097880B289B288424BD1DFF8C4056A
S11321D000210180DFF8D0050078401CDFF8C81525
S11321E00870DFF8AC050088401CDFF8A4150880EF
S11321F0DFF8B4050078DFF8A4150978884229D1FE
S1132200DFF8A8050088401CDFF8A015088080B21C
S1132210DFF8701551F820000002000A801EDFF874
S1132220B8140978DFF8A024126801FB0020DFF855
S113223094140860DFF874050088DFF8481551F835
S11322402000000EDFF854150870DFF85C0500214B
S113225001700EE0DFF86C040068401CDFF86414C1
S1132260086006E0DFF85C040068401CDFF85414E2
S1132270086010BD80B5DFF818150988DFF830252F
S11322801288914219D2DFF8041509888C4A126821
S11322908854DFF8F8040088401CDFF8F014088044
S11322A0DFF8E80400884FF40071884205D1DFF8B4
S11322B0DC0400210180FFF75DFF01BD80B5DFF87C
S11322C0D0040088DFF8CC1409880843DFF8BC1474
S11322D00988084380B2002811D0DFF8B0040088D0
S11322E0002801D0FFF746FFFFF7EAFBFFF70AFCDF
S11322F0FFF7F8FD764800F091FB00F00FFB01BDFD
S113230038B5012400250021DFF8740400F0FDFC39
S113231072B6DFF8B8134AF202620A80DFF8AC132F
S11323204BF280420A80DFF8A8130978002900D014
S113233062B66D1CC0B2002802D0ADB2642DE2D3E7
S1132340ADB2642D04D3DFF86C04032101700024C2
S1132350DFF82C040078EB2809D1DFF82404407856
S1132360582804D1DFF818048078902853D0DFF877
S1132370100490F8C601DFF8081491F8C711090297
S11323800818DFF8FC1391F8C81110EB0140DFF8CE
S1132390F01391F8C91110EB0160DFF81C14086008
S11323A00025DFF814040168DFF8D40300F0ADFC65
S11323B072B6C6494AF202620A80C4494BF28042AC
S11323C00A80C3490978002900D062B66D1CC0B2E6
S11323D0002802D0ADB2642DE3D3ADB2642D05D391
S11323E0DFF8D00303210170002418E0DFF8900324
S11323F00078EB2809D1DFF888034078582804D105
S1132400DFF87C038078902809D0DFF8A803042142
S11324100170002403E0DFF8A00300210160DFF86D
S11324206003407BAC490870DFF85403807BDFF81D
S11324305013C97B09020818DFF880130860DFF81D
S1132440400390F82400DFF8381391F825100902AE
S11324500818DFF82C1391F8261010EB0140DFF870
S1132460201391F8271010EB0160DFF85413086073
S1132470DFF844030068DFF8441309680818DFF83C
S113248024130860DFF81C030068DFF834130968BC
S11324900818DFF80C130860DFF804030068DFF89D
S11324A020130968081888490860E4B2002C01D197
S11324B000F034FA31BD0000180EFF1F1E0EFF1F7E
S11324C0E00BFF1FE40BFF1FDC0BFF1F0C0EFF1FB5
S11324D080841E000E0EFF1F060EFF1F0A0EFF1F34
S11324E02DE9F047002400263500B0465FFA88F84D
S11324F047465FF00C0903E018F101085FF000099A
S113250042F21070804580F094805FF0000ADFF89A
S11325109402006818EB0001994800F0F6FB72B6CB
S11325206A494AF202620A8068494BF280420A8090
S113253067490978002900D062B61AF1010AC0B2CD
S1132540002804D05FFA8AFABAF1640FDFD35FFA85
S11325508AFABAF1640F05D396480321017068E042
S113256019F104094FF4007081455ED2844819F8CA
S11325700000002833D1824819EB0000407800287D
S11325802DD17F4819EB00008078002827D17C48A2
S113259019EB0000C078002821D1EDB2002D09D13B
S11325A05FEA990010EBC810764941F8270001262C
S11325B035000EE0761CF6B2FA2E0AD1714850F8B6
S11325C02700F6B250EA06606E4941F827007F1CE6
S11325D0002577480088401C754908800DE0EDB25D
S11325E0012D09D1674850F82700F6B250EA066079
S11325F0644941F827007F1C00256D48008840F697
S11326008631884201D08C2FAAD16948008840F6CF
S11326108631884208D15B4850F82700F6B250EA68
S11326200660584941F827000124E4B2002C3FF425
S113263063AF5F48008840F68631884210D25D4817
S11326400078032802D05B480521017058480088AF
S1132650002803D057480078032801D100F05EF920
S1132660BDE8F08780B5FFF74BFE56480078002898
S113267027D000F07AF9FFF733FF52480078012899
S11326801FD1114800683F4909680902090A891ED7
S1132690114A127802FB01000A4908603D480021F2
S11326A0018000203A4908803849088000203E49CA
S11326B008703E49C0B2088032480068000E3749AD
S11326C0087001BD9C05FF1F9005FF1F0C200540ED
S11326D0140EFF1F946300001B0EFF1F10B50A2485
S11326E03848012101703848012101703148002126
S11326F0017000F04AF900F026F90EE0641E72B68B
S113270032484AF20261018030484BF28041018034
S11327102F480078002800D062B600F025FA00287F
S113272002D0E4B2002CE9D1E4B2002C02D100F0D2
S1132730F5F81CE01F4800210170FFF793FF2548BE
S1132740002101800C4800210180234800210180E0
S113275022480021018022480021018021480021D3
S11327600170214806490160204821490160184848
S11327700121017010BD0000080EFF1F1004FF1F8F
S1132780AC05FF1FAC07FF1FB4630000000EFF1F62
S1132790020EFF1FFC0DFF1FA005FF1F1C0EFF1FD5
S11327A09805FF1F9405FF1F1D0EFF1F040EFF1F3A
S11327B0FE0DFF1F170EFF1F8C05FF1FA405FF1F33
S11327C0A805FF1F150EFF1F180EFF1F0C20054044
S11327D0140EFF1F060EFF1F0A0EFF1F0C0EFF1F15
S11327E00E0EFF1F1E0EFF1FE00BFF1FE40BFF1F4B
S11327F0DC09FF1F00BF00BF00BF00BF00BF00BF58
S113280000BF00BF00BF00BF00BF00BF00BF00BFCC
S113281000BF00BF00BF00BF00BF00BF00BF00BFBC
S113282000BF00BF00BF00BF00BF00BF00BF00BFAC
S113283000BF00BF00BF00BF00BF00BF00BF00BF9C
S113284000BF00BF00BF00BF00BF00BF00BF00BF8C
S113285000BF00BF00BF00BF7047DFF8D81509688C
S113286051F08051DFF8CC251160DFF8CC150968F0
S1132870DFF8C8251140DFF8C0251160C0B250F060
S11328804060DFF8BC150860DFF8A8050068002880
S1132890FAD5DFF8A005006850F00040DFF8941581
S11328A00860DFF89405006850F44060DFF888158C
S11328B00860704780B5DFF87C15096851F08051D5
S11328C0DFF870251160DFF870150968DFF86C25F2
S11328D01140DFF864251160C0B250F04060DFF8A9
S11328E060150860DFF84C0500680028FAD5DFF8A9
S11328F04405006850F00040DFF838150860FFF721
S113290079FFDFF840050068DFF82C15096851F4F9
S11329104061DFF824251160C0B202BDDFF828054C
S113292000210170DFF82405006850F02000DFF872
S11329301C150860DFF81805006830F40050DFF853
S1132940101508607047DFF80C050068DFF80815FB
S11329500840DFF800150860DFF8F804006850F05C
S11329600700DFF8F01408607047DFF8E804006837
S1132970DFF8E4140840DFF8DC140860DFF8D4045E
S1132980DFF8D014096801607047DFF8C4040068F8
S113299050F40050DFF8B8140860DFF8C00440F2C7
S11329A003210160DFF8B80440F203210160DFF87D
S11329B0B40440F203210160DFF8AC0440F20221C8
S11329C00160DFF8A80440F203110160DFF8A004FD
S11329D0006850F02000DFF898140860DFF86C04F9
S11329E0006850F02000DFF864140860DFF8480441
S11329F00068DFF880140843DFF83C140860DFF84F
S1132A007804006850F01040DFF86C140860DFF8B8
S1132A1044045FF0605101607047000038B5040061
S1132A200025DFF85804007800281CD16D1CA5424D
S1132A3019D272B6DFF848044AF202610180DFF865
S1132A4040044BF280410180DFF83804007800280C
S1132A5000D062B6FF20FFF72DFF0028E1D0DFF899
S1132A601C040121017031BDF8B504000E001700EB
S1132A700025DFF80804007800280BD1DFF80804EB
S1132A80FFF7CCFFDFF8C403006850F02000DFF844
S1132A90BC130860FF20FFF7E0FEDFF8F0030068D6
S1132AA050F02000DFF8E4130860FF20FFF7D5FEA4
S1132AB054F04000C0B2FFF7D0FEDFF8D403007832
S1132AC0002800D17602300EC0B2FFF7C6FE300CEB
S1132AD0C0B2FFF7C2FE300AC0B2FFF7BEFE30003C
S1132AE0C0B2FFF7BAFE3800C0B2FFF7B6FEFF204F
S1132AF0FFF7E0FE06006D1C72B6DFF884034AF2AD
S1132B0002610180DFF878034BF280410180DFF835
S1132B1074030078002800D062B6ADB2FA2D01D15A
S1132B20002502E0F6B2FF2EE1D0E4B2082C02D078
S1132B30E4B23A2C0CD1002407E0FF20FFF7BAFEE0
S1132B40E4B2DFF850136054641CE4B2042CF4D3F0
S1132B50BE48006850F02000BC490860FF20FFF721
S1132B607CFE3000C0B2F2BD38B500250020002440
S1132B7000210D0003E0FF20FFF76FFE6D1CEDB296
S1132B800F2DF8D3C24801210170952200210020A5
S1132B90FFF76AFF641C72B6B9494AF202620A80FE
S1132BA0B7494BF280420A80B6490978002900D01F
S1132BB062B6C0B2012802D0A4B2642CE5D3A4B298
S1132BC0642C04D1B44801210170012052E0002496
S1132BD087224FF4D5710820FFF746FFC0B20128C1
S1132BE007D1AC488078012803D1AA48C078AA2824
S1132BF002D0A748002101700024FF2200213720C1
S1132C00FFF732FFC0B2012806D1FF22A0480078A6
S1132C1081072920FFF728FF641C72B698494AF2FD
S1132C2002620A8096494BF280420A8095490978EB
S1132C30002900D062B6C0B2002802D0A4B2642C2D
S1132C40DBD3A4B2642C04D3934802210170012085
S1132C5010E08F48007800280BD0FF2200213A2092
S1132C60FFF702FF8B490978490602D488480021FE
S1132C700170002032BD000070B504000D0000207A
S1132C8000268249096851F02001804A1160FF2022
S1132C90FFF710FE761CC0B2FE2804D04FF4FA7180
S1132CA0B6B28E42F3D34FF4FA71B6B28E4201D368
S1132CB0C0B229E0002612E072B671484AF20261FD
S1132CC001806F484BF2804101806E4800780028F3
S1132CD000D062B6FF20FFF7EDFD2070641C2800D1
S1132CE0451E80B20028E7D1FF20FFF7B6FDFF2084
S1132CF0FFF7B3FD5548006850F0200053490860C1
S1132D00FF20FFF7AAFD002070BD70B504000D0080
S1132D100020002659490978002908D15A48FFF7AC
S1132D207DFE4A48006850F02000484908600022AF
S1132D3029001120FFF798FE761CC0B2002802D0AB
S1132D40B6B2C82EF3D3B6B2C82E01D3C0B20BE0CC
S1132D5000264FF400712000FFF78EFFC0B2002858
S1132D6001D0C0B200E0002070BD000070B50400C6
S1132D700D00002000210026404A1278002A08D1C4
S1132D804148FFF74BFE3148006850F020002F49BE
S1132D900860002229001820FFF766FEC0B2002850
S1132DA001D0C0B244E03948006850F020003749EF
S1132DB00860FF20FFF751FDFF20FFF74EFDFF20C5
S1132DC0FFF74BFDFE20FFF748FD002612E072B628
S1132DD02B484AF20261018029484BF2804101806C
S1132DE028480078002800D062B62078FFF735FD27
S1132DF0641C761C4FF400708642E8D3FF20FFF772
S1132E002CFDFF20FFF729FDFF20FFF753FDC0B283
S1132E1010F01F01052907D00C49096851F0200161
S1132E200A4A1160C0B203E0144800210170002076
S1132E3070BD00002CD0024000D00240FEBFFFFF56
S1132E4034D0024038D00240150EFF1F04F10F4069
S1132E503C8004400CD00240F0FFFC7F00D00440D2
S1132E6004D0044008D004400CD0044014D00440E2
S1132E7014F10F4000001F8030D00240180EFF1FD5
S1132E800C200540140EFF1F80841E0008F10F4023
S1132E90160EFF1F8405FF1F170EFF1F2DE9F04FAD
S1132EA0A1B0804617461D46029102AE0020706212
S1132EB011AC6FF000490AE017F8011B0298C047F3
S1132EC00290002800F07882706A401C70623878A2
S1132ED008B9706A72E22528EED10020F0603061F2
S1132EE07061B061F061306201E040F0010017F8F8
S1132EF0011F2029F9D023290ED02B2904D02D29F4
S1132F0006D030290CD00FE040F0020080B2EEE78A
S1132F1040F0040080B2EAE740F0080080B2E6E73F
S1132F2040F0100080B2E2E72A290DD129680A1D79
S1132F302A600968F162002904D54942F16240F02F
S1132F40040080B27F1C11E00021F16209E0F16A03
S1132F50494505D001EB810302EB43013039F162AD
S1132F607F1C3A78A2F130010A29F0D339782E294E
S1132F701CBF4FF0FF31B1621CD117F8011F2A2981
S1132F8006D129680A1D2A600968B1627F1C11E014
S1132F900021B16209E0B16A494505D001EB810322
S1132FA002EB43013039B1627F1C3A78A2F130015F
S1132FB00A29F0D3308639780FF6382000F02CFD3A
S1132FC008B117F8010B8DF83A009DF83A0068280B
S1132FD004D1387868280AD1622005E06C2804BF3F
S1132FE038786C2803D171208DF83A007F1C11A821
S1132FF0B0603A781046253821D02038022870D99C
S1133000133800F09A800B3800F03781401E00F02E
S1133010DD80401E022864D9001F00F0D780401FC5
S113302034D0401E00F08980401E24D0C01E0CD035
S1133030801E00F08280C01E00F07F8026E1F068D0
S1133040411CF160252101552AE12868011D2960F0
S113305000687060B26A002A03D500F0E9FC3061B0
S11330601EE1002100F000FD00281ABF7168401A1B
S1133070B06A306114E12868011D296000680021EC
S1133080CDE9000111A870607821F2E09DF83A00C2
S1133090622818D0682806D06A280BD06C2819D06A
S11330A0712807D016E02868011D2960716A00683C
S11330B00180F5E02A68101D2860706AC117126843
S11330C0C2E90001ECE02868011D2960716A00680A
S11330D00170E5E02868011D2960716A00680160DB
S11330E0DEE02868C01D20F007002860034603F1D5
S11330F008002860D3E90001CDE90001002904D5C6
S1133100F068411CF1602D210DE0308E810704D55B
S1133110F068411CF1602B2105E0C00704D5F0687C
S1133120411CF16020210155F06811A9401870601C
S1133130114600A800F0D8F9B2E09DF83A306C2BA3
S113314008BF286811D0712B08BF286802D06A2BE9
S113315028680AD1C01D20F00700286084460CF1BD
S113316008002860DCE9000103E0011D2960006813
S11331700021CDE90001682B04BFDDE9000180B224
S11331800BD0622B04BFDDE90001C0B205D0742B63
S113319018BF7A2B04D1DDE900010021CDE900013B
S11331A096F8300000075FD5DDE90001002908BF6B
S11331B0002859D042F02000782855D1F0683021F9
S11331C00155401C411CF16002554DE09DF83A0048
S11331D062280CD0682810D06A281AD06C2824D011
S11331E0712816D0742820D07A280CD01DE02868C5
S11331F0011D296090F900001BE02868011D296069
S1133200B0F9000015E02868011D2960006800215C
S113321010E02868C01D20F007002860034603F171
S113322008002860D3E9000104E02868011D296032
S11332300068C117CDE90001DDE90001002904DAC5
S1133240F068411CF1602D210DE0308E810704D51A
S1133250F068411CF1602B2105E0C00704D5F0683B
S1133260411CF16020210155F06811A940187060DB
S1133270114600A800F0A5F812E0F068411CF160C6
S113328029680A1D2A600968015509E0F068411C93
S1133290F160252101551AB1F068411CF160025515
S11332A07F1CF06AF168401AB169401A3169401A0A
S11332B0F169401A7169401A316AA0EB010A96F863
S11332C03000400711D420208DF84000BAF1010FDE
S11332D00BDBD346012310AA00A9404600F073FB80
S11332E0002869D1BBF1010BF4D1F36811AA00A93C
S11332F0404600F068FB00285ED130208DF8400085
S1133300D6F818B0BBF1010F0ADB012310AA00A9FB
S1133310404600F058FB00284ED1BBF1010BF4D11C
S11333203369726800A9404600F04DFB002843D180
S113333030208DF84000D6F81CB0BBF1010F09DB3A
S1133340012310AA00A9404600F03DFBA0BBBBF13D
S1133350010BF5D1736930697168421800A94046C0
S113336000F031FB40BB30208DF84000D6F820B08F
S1133370BBF1010F09DB012310AA00A9404600F0AC
S113338022FBC8B9BBF1010BF5D196F83000400718
S11333907FF59DAD20208DF84000BAF1010FFFF6B6
S11333A096AD012310AA00A9404600F00CFB18B901
S11333B0BAF1010AF5D18AE54FF0FF3021B0BDE83A
S11333C0F08F2DE9FA4B86B005462F696F2908BFA7
S11333D0082605D041F02000782814BF0A261026BC
S11333E03C24D5E9000181468B469DF81820642AC7
S11333F018BF692A05D1002903DAD9F100096BEB5A
S11334004B0BBBF1000F08BFB9F1000F0CD1286BB7
S113341050B9082E44D195F83800000740D53B2414
S1133420302087F83B003BE0A4F101084446F01744
S1133430CDE9046048465946DDE9042300F040FB29
S1133440CDE90201CDE9009BDDE90223DDE90401B8
S1133450A0FB029BDDE90001A0EB09003030C0B203
S11334603A2803D39DF818105139081808F80700B2
S1133470DDE9029BBBF1000F08BFB9F1000F03D0D7
S1133480E868E1198842CFD3082E09D195F83800AD
S1133490000705D5E05D302802D0641E3020E055D9
S11334A0C4F13C00A861E119E960296B884207DA9C
S11334B0081A2862288F4FF6EF710840288710E019
S11334C000290ED595F8381001F01401102908D1FF
S11334D0696B6A69891A2A6A891A0C1A012CA8BFAD
S11334E02C6208B0BDE8F08B2DE9F24F8CB0054694
S11334F002AFD5E90089286B002848BF062005D40F
S113350004BF41F02000672801D101202863C9F3DA
S11335100A5040F2FF7398421DD15FEA093008BF98
S1133520B8F1000F09D10320A8619DF8300061387B
S11335301A2857D30FF2D04108E00320A8619DF860
S1133540300061381A284AD30FF2B4410322E868E4
S113355000F02EFB00E1010008D1284600F063FBD7
S11335600128A4BF0023002680F2ED8040F2FE3142
S11335706A6861F31E526A60461A40464946002250
S1133580002300F073FB38BF89F0004936B247F2DC
S113359097507043724990FBF1F636B2C6F10707B3
S11335A07049012F21DBC246CB4690468946F80775
S11335B007D55046594642464B4600F06FFB8246BB
S11335C08B467F104046494642464B4600F066FB18
S11335D080468946002FEAD1D046D94629E00FF229
S11335E01C41B3E70FF21C41B0E77F429246DFF87B
S11335F078B1CDE9002114D0F80707D550465946D3
S1133600DDE9002300F04AFB82468B467F10DDE9AA
S11336100001DDE9002300F041FBCDE90001002FAA
S1133620EAD14046494652465B4600F009FC8046D2
S113363089469DF8300040F0200ABAF1660F0CBFAD
S113364006F10A000620296B4418142CA8BF132481
S113365030208DF808000DF10907012C34DB4046B9
S1133660494600F011FD014607F1080204234FF01A
S11336700A0CB1FBFCF707EB870BA1EB4B013031D4
S113368002F8011DB7FBFCFC61460CEB8C0EA7EBAA
S11336904E07303702F8017D5B1EE8D102F10807BE
S11336A0083C012CD9DB00F005FD02460B464046E0
S11336B0494600F00DFD02460B4600202B4900F060
S11336C0EDFA80468946CAE70DF10900381A0DF172
S11336D009079DF80910302905D1401E761E17F8F8
S11336E0011F3029F9D0BAF1660F04BF36B2711C3C
S11336F004D0BAF1650F0CBF012100212A6B8B188D
S11337001BB29842B8BF03461BB2002B1BD4194608
S1133710814204DAC85D352828BF392000D2302020
S1133720CA19521E00E05B1E491E12F80149844268
S1133730F9D0392802D1C85D401CC855002902D5EA
S11337407F1E5B1C761C36B200961BB23A469DF86F
S11337503010284600F00CF80DB0BDE8F08F0000E2
S1133760A0860100000024400000F03F84D7974168
S11337702DE9F04385B00546894617461E46BDF936
S11337803040D5F83080012E02DA01260FF27C2772
S113379049F02000662809D0672840F098806FF02F
S11337A003018C42C0F2808044457DDA641C6628A3
S11337B00CD095F83800000702D44645B8BFB0468F
S11337C024B2B8EB040848BF4FF00008E868A969C0
S11337D024B2012C25DA4A1C30230B54B8F1010F12
S11337E003DA95F83810090702D52E211154521C1A
S11337F0AA6118EB040FB8BFC8F1000424B26142F7
S11338006962A044B045B8BF464636B2EE6132465E
S11338103946AB69181800F0CBF9A8EB0600A8628A
S1133820BAE00818A64218DA3246394600F0C0F960
S1133830A9697118A961A01B6862B8F1010F03DAC4
S113384095F83800000705D5E8682E220A54E8697F
S1133850401CE861C5F828809EE02246394600F005
S1133860A7F9A8692018A861361BB8F1010F03DA7B
S113387095F83810090704D5411CA961E9682E227E
S1133880425436B2B045B8BF464636B23246E11964
S1133890A869EB68C01800F08BF9A8693018A86112
S11338A0A8EB0600686277E0464504DA95F838101C
S11338B0090758BFB046B8F1010848BF4FF00008E7
S11338C0B9F1670F0CBF4FF065094FF04509A969BD
S11338D04A1CE86817F8013B0B54B8F1010F03DAEE
S11338E095F83810090702D52E211154521CAA61EB
S11338F0B8F1010F11DB761E36B2B045B8BF4646AB
S113390036B232463946AB69181800F051F9A86945
S11339103018A861A8EB06006862A869E96847182E
S113392007F8019B002C5CBF2B2007F8010B03D583
S11339302D2007F8010B644200260DF1080824B27B
S1133940012C0EDB0A22214600A800F081FC01981C
S113395008F8010B009C761C24B2012CF2DA022E2A
S113396006DA49F02000652804BF302007F8010B6F
S11339701EB9302007F8010B09E0012E07DB761E83
S113398002A8305C303007F8010B012EF7DAA86981
S1133990E9684018381AE86195F8380000F0140016
S11339A010280DD16869A9690818696A0818E969B5
S11339B00818A96A0818696B8842BCBF081A2862EB
S11339C005B0BDE8F083F8B504460D4616461F461B
S11339D0002077B116F8011BA868A047A86030B191
S11339E0E86A401CE86200207F1EF3D1F2BD4FF06C
S11339F0FF30F2BD686A6C747A4C00006E616E0030
S1133A004E414E00696E6600494E46003000026821
S1133A10531C0360117070470278C9B28A421AB10C
S1133A201CBF10F8012FF9E718BF002070470000F1
S1133A3000F10103810704D010F8011B89B181074B
S1133A40FAD10268B2F10131914311F0803F04BF11
S1133A5050F8042FF6E710F8011B11B110F8011B00
S1133A60FBE7C01A70470000C9B2830706D0521E94
S1133A7022D310F8013B9942F7D11FE0083A13D33F
S1133A8002F1040241EA012141EA014150F8043BF8
S1133A90121F21BF4B40A3F1013C2CEA030C1CF084
S1133AA0803FF3D0C9B2001F083210F8013B521E08
S1133AB028BF91EA030FF8D818BF0120401E7047B1
S1133AC01B4213D1094236D12AB18446B0FBF2F02D
S1133AD002FB10C2704700F0C3BBFCD300220023DA
S1133AE070470B000200002100207047904271EBE8
S1133AF0030CF6D370B5B1FA81F4B3FA83F52C1B39
S1133B00A340C4F1200532FA05F63343A2405FF026
S1133B100046E64002E05B085FEA3202841A71EB79
S1133B20030524BF204629467641F4D302000B0046
S1133B303000002170BD012ACFD970B5140C20D0FB
S1133B40B1FA81F4B2FA82F5C4F120046419B4F133
S1133B502006D6D3B2405FF00044F440002502E0D2
S1133B6052085FEA3303C61A71EB020E24BF3046D3
S1133B70714664416D41F3D302000B00200029001B
S1133B8070BD0C46B1FBF2F102FB11452D0445EA70
S1133B901045B5FBF2F402FB145580B240EA05452A
S1133BA0B5FBF2F002FB105240EA044070BD000085
S1133BB062B38B0708D0521E11F8013B00F8013B99
S1133BC000F024808B07F6D1830740F0208000BFEB
S1133BD0103A07D330B4B1E83810103AA0E83810DE
S1133BE0F9D230BC530724BFB1E80810A0E808108C
S1133BF044BF51F8043B40F8043BD20724BF31F8DA
S1133C00022B20F8022B44BF0B7803707047083A4C
S1133C1007D3B1E80810083A40F8043B40F804CB55
S1133C20F7D25307E4E730B4416801F000420121C0
S1133C3043681B031B0B436004BF0368002B0ED0B7
S1133C4003684468DD0F45EA440444605B00036094
S1133C50491EE302F4D543681B031B0B436043680E
S1133C601A434260084630BC704700004FF4001C01
S1133C701CEB410F94BF1CEB430F09E041EA030C1A
S1133C8050EA4C0C52EA0C0C03D2994208BF904201
S1133C90704714BF8B42824270470000B0B581EA7E
S1133CA0030C0CF0004C40F2FF7515EA11541DBFD3
S1133CB015EA1357AC42AF4239E0E41923EA4553FD
S1133CC043F48013C90241F0004141EA505EC70247
S1133CD01100A7FB020200284FF00000EEFB0120B8
S1133CE04FF00001E3FB072118BF42F00102401826
S1133CF000214941E3FB0E01A4F580640F0302D2C5
S1133D0052004041494154F101046CDD470872F10D
S1133D10004250F1000051EB0451A1F580115CBF49
S1133D2041EA0C01B0BD4CEA05510020B0BD05EAE2
S1133D301357AC4214BFAF4241E050EA410E1CBFDE
S1133D4052EA430E02E061460020B0BD24423C44E6
S1133D501BD15FEA070EF6D0090302BF014600201B
S1133D60AEF1140EB1FA81F7AEEB070401FA07FEC7
S1133D700C37C7F1200100FA07F7C8404EEA000EDD
S1133D8023EA455343F48013A2E733F00043B3FA24
S1133D9083F704BFB2FA82FE77440B3FE41BB7F10A
S1133DA0200E2FBF02FA0EF3BB40C7F1200E22FAF9
S1133DB00EFE38BF43EA0E03BA40641C82E750EAA1
S1133DC0410E14BF52EA430E6FF000014FF4001786
S1133DD017EB430F8ABF194617EB410FB5E74CEABF
S1133DE005510020B0BDD4F10104B4F120070FDA6D
S1133DF0C4F12007520828BF42F0010210FA07F567
S1133E0001FA07F7E1BF2A43E0403843E1400FE0FD
S1133E10352C98DCC7F1200452EA400220FA07F25C
S1133E2018BF42F0010231FA07F0A1400A43002111
S1133E3072F1004250F1000051EB0C01B0BD0000E2
S1133E40F0B540F2FF7581EA030C0CF0004C15EA62
S1133E5011541DBF15EA1357AC42AF42E5E0BC4113
S1133E60C1F31301C3F31303801A994143F480137C
S1133E7004D2641E4000494180185941C90241EAF4
S1133E805051B1FBF3F603FB1611A2FB0675D7EBF9
S1133E90C020A94102D2761E80185941C90241EAC4
S1133EA05051B1FBF3FE03FB1E11A2FB0E75D7EBC1
S1133EB0C020A94103D2AEF1010E801859418902F4
S1133EC041EA9051760546EA8E2EB1FBF3F603FBE8
S1133ED01611A2FB0675D7EB8020A94102D2761EEB
S1133EE080185941C90241EA50514EEA060EB1FB0D
S1133EF0F3F603FB1611A2FB0675D7EBC020A9410C
S1133F0002D2761E80185941C90241EA5051B1FBD0
S1133F10F3F703FB1711A2FB0735D3EBC020A9412C
S1133F2067F100070CBF004247F0010766F3D5278D
S1133F304FEA1E31B80814F5806412DDBD0775F12F
S1133F40004250EB0E5051EB045111F5801F5CBF41
S1133F5041EA0C01F0BD4CF07F6141F0E0410020EA
S1133F60F0BDBD076D0840EA0E5041F48011D4F154
S1133F700104B4F120060ADAC4F120060200E0408C
S1133F8001FA06F3E1401843B24015430EE0342C25
S1133F9013DCC6F1200445EA40056D0820FA06F258
S1133FA0154321FA06F0A1400D43002175F10042AA
S1133FB050F1000051EB0C01F0BD00205FEA0C0150
S1133FC0F0BDCFB992185B41B3FA83F704BFB2FADC
S1133FD082F6BF190B3FB7F120062FBF02FA06F392
S1133FE0BB40C7F1200622FA06F638BF3343BA4075
S1133FF01CB1E419641E33E77F4231F00041B1FA89
S113400081F404BFB0FA80F6A4190B3CB4F1200685
S11340102FBF00FA06F1A140C4F1200620FA06F6EB
S113402038BF3143A0403C1B1AE7AC421ABF05EA33
S11340301357AF4212E050EA41061CBF52EA43064E
S1134040BFE750EA4107304661461CBF41EA0551CB
S1134050F0BD52EA430C08BFC143F0BD00204FF449
S1134060001616EB410F98BF16EB430F08BF16EB73
S1134070410F24BFC14305E016EB430F0CBF61465B
S11340804CEA0551F0BD0000400D40EAC120490052
S113409080F00D8040F00040490DA1F58061491C7D
S11340A005D4D1F11F0154BFC840C01770474FF069
S11340B000007047010000BF09D0B0FA80F18840C9
S11340C0C91CC1F58461090501EBD0214005704785
S11340D070B44FF0004591EA030F44BF6B4000F009
S11340E0C1B800BF841A71EB030604D26E40001BF2
S11340F0B141121973414FF4001C1CEB410F34BF42
S11341007CEB430684E00C0DA4EB1356362E7DDCC9
S1134110012E43DC45EAC32343EA525312BFD202C1
S113412092025B08240545EAC12141EA5051D2EBD1
S1134130C020994125D407D1B0FA80F610FA06F1CF
S113414064D00020203608E0B1FA81F6B140C6F10F
S1134150200220FA02F21143B0404FEAF474B4EBA7
S1134160465434F001064FEA74040AD8D6F5001612
S1134170760D04F00044F04061FA06F25040F1403C
S11341804840C00A40EA415021F0004128BF5FEA9C
S1134190500550F1000044EBD12137E045EAC32338
S11341A0DB0A45EAC121C90AB6F120050EDD42EA5F
S11341B00242120CC5F1200603FA06F6EB4042EA6D
S11341C006056D42984161F100010DE062FA06F5C1
S11341D0F240554063FA06FC82EA0C02F3405A406E
S11341E06D42904161EB030111F4801F05D1641EFF
S11341F0620502D06D004041494121F48011430819
S113420075F1004350F1000041EB045170BC70475C
S11342101CEB410F15D223F0004352EA43060BD0A6
S11342204FEA4C0CBCEB410F04D80C0D661E342E27
S1134230B7DDEBE7801A994150EA410608BF002137
S1134240E4E708BF1CEB430F28BF6FF00001DDE774
S113425091FBF2F303FB1211C0E900317047000037
S113426070470000841A71EB030603D2001BB141AE
S1134270121973414FF4001C1CEB410F34BF7CEB4B
S1134280430443E00C0DA4EB1356352E50DC45EAF1
S1134290C323DB0A45EAC121C912B6F120050DDDAD
S11342A063FA05F6EB4086EA0305124218BF45F0AF
S11342B00105C01851F100010CD213E062FA06F5B1
S11342C0F2405540F3415A40B340F3405A408018FD
S11342D0594107D349085FEA30005FEA350528BF32
S11342E045F0010501F58011420875F1004250F1D5
S11342F0000041EB045170BC4FF4001C1CEB410F57
S113430038BF70470020090D090570471CEB410FA9
S113431010D252EA43060BD0BCEB410F05D80C0D6A
S1134320AB43661E342EB5DD02E0AB438018594121
S113433070BC704770BC7047C0B2002808D1DFF869
S1134340C805006850F08000DFF8BC15086007E07D
S1134350DFF8B805006850F08000DFF8B015086099
S11343607047C0B2002809D1DFF89C0500684FF4FB
S113437000710843DFF89015086008E0DFF88C0549
S113438000684FF400710843DFF880150860704737
S1134390C0B2002808D1DFF87005006850F400604E
S11343A0DFF86415086007E0DFF86005006850F482
S11343B00060DFF8581508607047DFF854054FF4C3
S11343C080710160DFF84C05006850F08000DFF870
S11343D044150860DFF840054FF480710160DFF890
S11343E0340500684FF400710843DFF828150860AD
S11343F0DFF828054FF480710160DFF818050068C4
S113440050F40060DFF80C1508607047002023E0CA
S1134410C0B23C21DFF8082501FB002100220A80FC
S1134420C0B23C21DFF8F82401FB0021002281F80E
S11344303220C0B23C21DFF8E82401FB0021002235
S113444081F83320C0B23C21DFF8D42401FB0021E1
S1134450022281F83420401CC0B20328D8D3DFF8EC
S1134460C004DFF8C0148163DFF8B404DFF8B814C3
S11344704167DFF8AC04DFF8B414C0F8B01070473B
S113448010B4C0B23C22DFF8983402FB003292F838
S11344903220C0B23C23DFF8884403FB004393F886
S11344A033309A4208D1C0B23C22DFF8743402FBA4
S11344B0003080F8341008E0C0B23C21DFF86024FA
S11344C001FB0020012180F8341010BC704738B57E
S11344D00100C9B23C20DFF8482400FB0120008819
S11344E0C9B23C22DFF8383402FB013292F83220A0
S11344F0C9B23C23DFF8284403FB014313EBC20297
S1134500127990FBF2F302FB130080B2C9B23C2291
S1134510DFF80C3402FB013292F83220C9B23C239A
S1134520DFF8FC4303FB014313EBC2025279C9B227
S11345303C23DFF8EC4303FB014393F83230C9B268
S11345403C24DFF8DC5304FB015414EBC3039B79D4
S113455053FA82F2904246DA80B2002826D1C9B2D8
S11345603C20DFF8BC2300FB012090F83200C9B2E4
S11345703C22DFF8AC3302FB013212EBC00040797D
S1134580002809D00020C9B23C22DFF8943302FB92
S11345900131896B88479FE00120C9B23C22DFF8D2
S11345A0803302FB0131896B884795E0C9B23C2214
S11345B0DB4B02FB013292F83220C9B23C23D84CC7
S11345C003FB014313EBC202527980B292B29042D0
S11345D040F082800120C9B23C22D14B02FB013160
S11345E0896B884778E0C9B23C22CD4B02FB01328B
S11345F092F83220C9B23C23C94C03FB014313EBAC
S1134600C2025279C9B23C23C54C03FB014393F85F
S11346103230C9B23C24C24D04FB015414EBC30331
S11346209B7953FA82F280B2824219D1C9B23C20FA
S1134630BB4A00FB012090F83200C9B23C22B84BBF
S113464002FB013212EBC000C079002844D00020E4
S1134650C9B23C22B24B02FB0131896B88473BE073
S1134660C9B23C22AE4B02FB013292F83220C9B2ED
S11346703C23AB4C03FB014313EBC2025279C9B296
S11346803C23A74C03FB014393F83230C9B23C24CA
S1134690A34D04FB015414EBC3039B7953FA82F238
S11346A0C9B23C239E4C03FB014393F83230C9B298
S11346B03C249B4D04FB015414EBC303DB7952FAF5
S11346C083F280B2824207D10120C9B23C22944BCA
S11346D002FB0131896B884731BD80B5FFF76DFE60
S11346E00120FFF729FE0120FFF73BFE0120FFF721
S11346F04FFEFFF78BFE01BDF8B5069C079DC0B2C7
S11347003C26874F06FB007696F83460002E00F0B6
S11347108D80C0B23C26824F06FB0076002737808E
S1134720C0B23C267E4F06FB007696F83360C0B2DA
S11347303C27DFF8ECC107FB00C717EBC606718006
S1134740C0B23C21764E01FB006191F83310C0B237
S11347503C26734F06FB007616EBC1014A71C0B2CA
S11347603C216F4E01FB006191F83310C0B23C262E
S11347706B4F06FB007616EBC1018B71C0B23C2176
S1134780674E01FB006191F83310C0B23C26644FC0
S113479006FB007616EBC101CC71C0B23C21604E21
S11347A001FB006191F83310C0B23C265C4F06FB5C
S11347B0007616EBC1010D72C0B23C21584E01FBCC
S11347C0006191F83310C0B23C26554F06FB0076C9
S11347D016EBC1019A18A218AA180A71C0B23C219A
S11347E04F4A01FB002191F83310491CC0B23C220E
S11347F04B4B02FB003282F83310C0B23C21484AD2
S113480001FB002191F83310062291FBF2F302FB25
S11348101311C0B23C22424B02FB003282F8331027
S11348200021C0B2FFF72CFE002000E00120F2BD01
S113483010B5002411E02000C0B2FFF748FEE4B236
S11348403C20374900FB04100088401CE4B23C21A2
S1134850334A01FB04210880641CE4B2032C52D2C5
S1134860E4B23C202E4900FB041090F834000228E6
S1134870F2D0E4B23C202A4900FB041090F8320044
S1134880E4B23C21264A01FB042111EBC00040881C
S1134890E4B23C21224A01FB042109888842CAD19E
S11348A0E4B23C201E4900FB041000210180E4B264
S11348B03C201B4900FB041090F83200401CE4B279
S11348C03C21174A01FB042181F83200E4B23C2068
S11348D0134900FB041090F83200062190FBF1F21A
S11348E001FB1200E4B23C210D4A01FB042181F8D2
S11348F0320002212000C0B2FFF7C2FD2000C0B286
S1134900FFF7E5FDA8E710BD88F00F4084F00F40E5
S11349101CB0044094F00F4024B004402CB0044078
S1134920CC04FF1F3943000063430000914300009F
S1134930DFF89C054FF480710160DFF898054FF4AF
S113494080710160DFF890054FF480710160DFF839
S11349508C054FF480710160DFF88405006850F421
S11349600010DFF87C150860DFF87405006850F06B
S11349700200DFF86C150860DFF86405006850F089
S11349800800DFF85C150860DFF85405006850F48F
S11349908060DFF84C150860704780B52020FCF774
S11349A06BFBDFF84015086001BD10B5DFF8340576
S11349B00068002804D0DFF82C050068FCF7B2FC7E
S11349C0DFF820050021016000241AE0E4B2182079
S11349D0DFF8141500FB04108068002808D0E4B246
S11349E01820DFF8041500FB04108068FCF79AFC1B
S11349F0E4B21820DFF8F01400FB041000218160F9
S1134A00641CE4B2052CE1D310BD00000822C9B235
S1134A10002908D0DFF8D414096851F00801DFF840
S1134A20CC34196007E0DFF8C814096851F00801B4
S1134A30DFF8BC341960DFF8B814096851F40011C8
S1134A40DFF8AC34196019E0DFF8A414096851F0F8
S1134A500201DFF89C341960DFF89014096851F4FE
S1134A600011DFF88834196000BFDFF88414096886
S1134A7051F40011DFF878341960400011004A1E27
S1134A80C9B200290AD00106DED5DFF8601409682E
S1134A9051F00201DFF854341960DDE7704738B58E
S1134AA0002410E00121E4B2EDB28420DFF83424C4
S1134AB0126800FB0520205CFFF7A8FF6D1CEDB217
S1134AC0842DEFD3641CE4B2082C0FD20021B4F17E
S1134AD05000C0B2FFF79AFF00210020FFF796FFB5
S1134AE000211020FFF792FF0025E8E731BD38B51B
S1134AF004000021B4F15000C0B2FFF787FF002189
S1134B000020FFF783FF00211020FFF77FFF00251F
S1134B100CE00121E4B2EDB28420DFF8C82312686E
S1134B2000FB0520205CFFF771FF6D1CEDB2842DA6
S1134B30EFD331BDDFF8B403006850F40010DFF8A0
S1134B40AC130860DFF8A803006850F48060DFF855
S1134B50A0130860002001E000BF401C4FF47A71EC
S1134B6080B28842F8D3DFF88403006850F4806090
S1134B70DFF878130860704780B50021AE20FFF796
S1134B8045FF0021D520FFF741FF00218020FFF7DA
S1134B903DFF0021A820FFF739FF00213F20FFF748
S1134BA035FF0021D320FFF731FF00210020FFF75C
S1134BB02DFF00214020FFF729FF00218D20FFF762
S1134BC025FF00211420FFF721FF00212020FFF7FB
S1134BD01DFF00210220FFF719FF0021A020FFF78D
S1134BE015FF0021C020FFF711FF0021DA20FFF795
S1134BF00DFF00211220FFF709FF00218120FFF79C
S1134C0005FF0021EF20FFF701FF0021D920FFF766
S1134C10FDFE0021F120FFF7F9FE0021DB20FFF764
S1134C20F5FE00213020FFF7F1FE0021A420FFF75C
S1134C30EDFE0021A620FFF7E9FE0021AF20FFF7DB
S1134C40E5FE01BD80B500218D20FFF7DFFE0021C8
S1134C501420FFF7DBFE0021AF20FFF7D7FE01BDD4
S1134C6080B500218D20FFF7D1FE00211020FFF731
S1134C70CDFE0021AE20FFF7C9FE01BD00200DE0EE
S1134C80C0B2C9B28422974B1B6802FB01320023D5
S1134C908354491CC9B28429F2D3401CC0B20828E9
S1134CA001D20021F6E77047F0B4203A002418E05E
S1134CB0C9B2082591FBF5F5E4B254FA80F68427CD
S1134CC0DFF820C2DCF800C007FB06C6E4B2D2B2AB
S1134CD00627DFF820C207FB02C7E75DFF43AF5595
S1134CE0641CE4B2062C1AD2DBB2002BE0D0C9B2A9
S1134CF0082591FBF5F5E4B254FA80F68427DFF831
S1134D00E4C1DCF800C007FB06C6E4B2D2B2062751
S1134D10DFF8E0C107FB02C7E75DAF55E0E7F0BC91
S1134D20704703E00A780270491C401C0A78002A84
S1134D30F8D109780170704738B50024002534E0B3
S1134D40EDB20C206C4900FB05100168EDB218208F
S1134D50654A00FB05208068FFF7E3FFEDB21820E9
S1134D60614900FB0510EDB20C21634A01FB0521EA
S1134D704968C160EDB218205B4900FB0510EDB233
S1134D800C215D4A01FB052189684174EDB20C20B8
S1134D90594900FB05100068FEF74AFEEDB21821E0
S1134DA0514A01FB052108746D1CEDB2052D19D281
S1134DB0EDB218204C4900FB0510002181601E2033
S1134DC0FCF75AF9EDB21821474A01FB0521886026
S1134DD0EDB21820444900FB051080680028AFD1CB
S1134DE0641CE1E72000C0B232BD2DE9F0410400AB
S1134DF00D0000260027D5F80880280000F088F868
S1134E000DE0002398F80020E4B2E100C9B23000BC
S1134E10C0B2FFF749FFB61D18F101087F1C287CBA
S1134E20FFB28742EDD398F80000002817D0012381
S1134E3098F80020E4B2E100C9B23000C0B2FFF734
S1134E4033FFB61D18F10108EDE701232022E4B277
S1134E50E100C9B23000C0B2FFF726FFB61DF6B2BA
S1134E607A2EF2D32000C0B2FFF741FEBDE8F081F4
S1134E7010B5002409E0E4B218201B4900FB04111A
S1134E802000C0B2FFF7B1FF641CE4B2052CF2D3DA
S1134E9010BD80B5FFF781FD12480068002801D1DC
S1134EA0012012E0FFF744FDFFF744FEFFF764FE24
S1134EB0FFF7C8FEFFF7E2FEFFF7F1FDFFF73CFF47
S1134EC0002801D0012000E0002002BD0000000005
S1134ED054A0044004A004400CA0044028A00440B2
S1134EE054F00F408005FF1F2004FF1F44F00F40C3
S1134EF048F00F40005C00001C63000080B5FFF721
S1134F00BDFEFFF7CCFDFFF7ABFEFFF74EFD01BD85
S1134F1070B586B0060000A8142100F077F8307C44
S1134F20B168441800AD707C00280BD002281CD056
S1134F3011D304282CD021D306283BD031D3072801
S1134F4045D050E0F0680078307032782CA100A889
S1134F5000F060F84CE0F0680078307096F90020BA
S1134F6027A100A800F056F842E0F06800883080DD
S1134F70328823A100A800F04DF839E0F0680088D9
S1134F803080B6F900201EA100A800F043F82FE0FD
S1134F90F06800683060326819A100A800F03AF89F
S1134FA026E0F06800683060326815A100A800F0BF
S1134FB031F81DE0F06800683060306800F044F8B3
S1134FC002000B000F4900A800F024F810E0F0687C
S1134FD0D0E90023C6E90023D6E900230A4900A842
S1134FE000F018F804E003E0287820706D1C641CBD
S1134FF028780028F8D12878207006B070BD00BF4A
S113500025640000E4630000EC630000002200F06B
S113501043B800000CB41CB5044604A801900094E5
S113502001AB0A4600A9074878441830FDF736FF5B
S1135030009900220A7000285CBF0098001B16BC6F
S11350405DF80CFBCBE9FFFF5FF0FF0C1CEAD051CD
S113505014BF614506E0C110400721F0E04101F1B1
S11350606051704779B900F0004100020AD0B0FAEB
S113507080FC00FA0CF001F16051A1EB0C5101EB42
S1135080D0214005704741020CBF40F4E0016FF0AD
S1135090000100207047000000B500BF13009646D1
S11350A09446103928BFA0E80C50FAD85FEA417C36
S11350B028BF0CC048BF40F8042BC90728BF20F8FC
S11350C0022B48BF00F8012B00BD000081B07820FE
S11350D0ADF8000019E072B6DFF8FC034AF2026191
S11350E00180DFF8F4034BF28041018062B6BDF821
S11350F00200401EADF80200BDF802000128EAD209
S1135100BDF80000401EADF80000BDF80000012805
S113511004D34FF46170ADF80200EDE701B07047BD
S113512081B05A20ADF80200BDF90200411EADF86D
S1135130021000B2002818D00020ADF80000BDF91C
S113514000000228F0DA72B6DFF88C034AF202613A
S11351500180DFF884034BF28041018062B6BDF820
S11351600000401CADF80000E9E701B0704780B5CD
S1135170DFF86803006850F40000DFF8601308608B
S1135180DFF85803006850F40030DFF8501308606B
S1135190DFF84C03006850F40030D1490860FFF791
S11351A0BFFFCF48006850F40000CD490860FFF706
S11351B0B7FFFFF7B5FFFFF7B3FFFFF7B1FFC9482C
S11351C0006850F40030C7490860FFF7A9FFFFF7F3
S11351D0A7FFFFF7A5FFFFF7A3FF01BD80B5BF48F9
S11351E0006850F40000BD490860BC48006850F4F1
S11351F00030BA490860BB48006850F40030B9492F
S11352000860FFF78DFFB648006850F40000B44909
S11352100860FFF785FFFFF783FFFFF781FFFFF7C4
S11352207FFFAF48006850F40030AD490860FFF7D5
S113523077FFFFF775FFFFF773FFFFF771FF01BDFE
S113524080B5A648006850F40000A4490860A3484B
S1135250006850F40030A1490860A148006850F487
S113526000309F490860FFF75BFF9E48006850F4D8
S113527000009C490860FFF753FFFFF751FFFFF759
S11352804FFFFFF74DFF9648006850F40000944923
S11352900860FFF745FFFFF743FFFFF741FFFFF704
S11352A03FFF9048006850F400008E490860FFF703
S11352B037FFFFF735FFFFF733FFFFF731FF01BD7E
S11352C038B5040008258548006850F40000834977
S11352D008608248006850F40030804908608148C2
S11352E0006850F400007F490860FFF719FFFFF7DA
S11352F017FFFFF715FFFFF713FF2AE07848006850
S113530050F4003076490860FFF70AFFFFF708FF02
S1135310FFF706FFFFF704FF64007148006850F4CC
S113532000006F490860FFF7FBFEFFF7F9FEFFF787
S1135330F7FEFFF7F5FE6B48006850F4000069497A
S11353400860FFF7EDFEFFF7EBFEFFF7E9FEFFF75E
S1135350E7FE2800451EC0B200280BD014F08000E0
S1135360C0B20028CAD15F48006850F400305D49DB
S11353700860C9E7FFF7D4FEFFF7D2FEFFF7D0FEBF
S1135380FFF7CEFEFFF7CCFEFFF7CAFE31BD38B5FE
S11353900024082548E05148006850F400004F49B3
S11353A008604E48006850F400304C4908604C488E
S11353B0006850F400304A490860FFF7B1FEFFF777
S11353C0AFFEFFF7ADFEFFF7ABFE4448006850F4B4
S11353D00000424908604148006830F400303F4909
S11353E0086064003F48006850F400003D490860CC
S11353F0FFF796FEFFF794FEFFF792FEFFF790FE8D
S11354003748006850F4000035490860FFF788FE0B
S1135410FFF786FEFFF784FEFFF782FE324800683E
S1135420800301D554F001042800451EC0B20028B1
S1135430B1D12A48006850F4000028490860274880
S1135440006850F40030254908602648006850F48C
S11354500000244908602248006850F400302049C4
S113546008602000C0B232BD80B520484FF481717D
S11354700160582000F0D4F801BD80B51C4840F20A
S1135480031101601B4840F203110160FFF76FFE36
S11354907020FFF715FFFFF7D3FE0D20FFF710FF75
S11354A0FFF7CEFE0320FFF70BFFFFF7C9FEFFF760
S11354B095FEFFF70BFE01BD10B50400FFF7DDFFFD
S11354C0FFF7D2FF0C4804600848006850F420201D
S11354D00649086010BD00000C20054054F00F4040
S11354E044F00F4048F00F4050F00F404CA00440EF
S11354F05CA0044044A004408805FF1F10B5FFF7DA
S113550036FE7020FFF7DCFEFFF79AFE0120FFF75E
S1135510D7FEFFF795FEFFF72AFE7120FFF7D0FEB6
S1135520FFF78EFEFFF733FF0400FFF757FEFFF788
S1135530CDFD2000C0B210BD10B5FFF718FE7020DD
S1135540FFF7BEFEFFF77CFE0220FFF7B9FEFFF770
S113555077FEFFF70CFE7120FFF7B2FEFFF770FE37
S1135560FFF715FF0400FFF739FEFFF7AFFD20003A
S1135570C0B210BD70B5002400250026FFF7BEFFA1
S11355800400FFF7D9FF0500E4B2012C37D0022C48
S113559037D0032C37D0042C3DD0092C16D00A2C3C
S11355A01DD00B2C1DD00C2C2FD0112C21D0122C43
S11355B021D0132C21D0142C2BD0192C13D01A2C1D
S11355C013D01B2C13D01C2C21D026E00124EDB2C7
S11355D02E003602E4B22643300080B270BD0224AD
S11355E0F5E70324F3E70424F1E70524EFE70624B1
S11355F0EDE70724EBE70824E9E70924E7E74E246D
S1135600E5E70024E3E75924E1E72D24DFE72E242E
S1135610DDE75524DBE74424D9E70020DEE700007A
S1135620410900290DD1012110F01F029140264AA1
S11356301160012110F01F0011FA00F023490860E5
S11356401CE001290DD1012110F01F029140204AD4
S11356501160012110F01F0011FA00F01D490860CB
S11356600CE0012110F01F0291401B4A116001213E
S113567010F01F0011FA00F018490860002070476C
S113568000F1604010F5644009010170002070478A
S113569013484CF22051018011484DF62811018025
S11356A010480021018010480E2101800F484FF45A
S11356B0264101800E4844F20301018008484CF25F
S11356C020510180FEE7000080E200E000E100E0FC
S11356D084E200E004E100E088E200E008E100E0A8
S11356E00E200540162005400420054006200540F4
S11356F00020054070B5040042F21075002617E042
S1135700A4B2ADB294FBF5F00A2190FBF1F201FBD7
S1135710120080B2002800D00126B6B2002E03D0B9
S11357203030C0B2FCF7A6FDADB20A2095FBF0F50F
S1135730ADB2002DE4D1B6B2002E02D13020FCF778
S113574099FD70BDF8B50D20FCF794FD0A20FCF717
S113575091FDDFF874030088DFF870130C88DFF81C
S113576070130D88DFF86C130E88DFF86C130F8844
S113577080B2FFF7BFFF2C20FCF77CFD200080B235
S1135780FFF7B8FF2C20FCF775FD280080B2FFF767
S1135790B1FF2C20FCF76EFD300080B2FFF7AAFFAA
S11357A02C20FCF767FD380080B2FFF7A3FFF1BDA2
S11357B080B50020FCF75EFDDFF820030088642834
S11357C015D1C64801884FF4807291FBF2F000FBBA
S11357D01210C0B2FCF74EFDC048008880B2000A27
S11357E0C0B2FCF747FDFFF7ADFFFCF767FDBB4810
S11357F00088401CB949088001BDB94800210170E6
S1135800B84800210170B84801210170B74800214F
S113581001807047F0B4B3480078B14909788842F0
S113582003D1B1480078002873D1AD480078B0495D
S113583011EBC000017942798379C479AB4D2D888D
S1135840468895FBF6F706FB1755ADB2D2B252FA6D
S113585081F6B5421FDAADB2002D10D1C9B20029CC
S113586006D0A449096851F00071A24A116030E0E1
S1135870A149096851F000719F4A116029E0C9B239
S113588089B2ADB2A94224D19B49096851F0007193
S1135890994A11601DE0D2B252FA81F4ADB2AC4221
S11358A009D1DBB2002B14D09249096851F0007180
S11358B0904A11600DE0D2B252FA81F151FA83F1AB
S11358C0ADB2A94205D18C49096851F000718A4AE8
S11358D0116086490988491C844A1180008889B26C
S11358E0814216D38448006850F0007082490860F1
S11358F07B480078401C7A490870C0B2062802D15F
S113590077480021017079480021018076480121FF
S11359100170F0BC7047000080B578480078012819
S113592009D141F28830FDF779F8754800780028EC
S113593001D0FFF73DFF72B672484AF2026101805E
S113594070484BF28041018062B672B66D484AF2EB
S1135950026101806B484BF28041018062B66A4863
S11359600078002801D1FFF783FA01BD70B4039CCD
S113597080B2002829D05C4D2D78002D25D0594DBA
S11359802D785B4E16EBC505288029716A71AB71C1
S1135990EC71D2B252FA81F050FA83F050FA84F0EA
S11359A0688050480078401C4E490870C0B20628F0
S11359B002D14C48002101704A48007848490978CE
S11359C0884202D148480021017070BC704770477A
S11359D000B583B000F0A0F84C4908804B4800782B
S11359E010F00300C0B2002805D0022805D003D36C
S11359F0032803D003E002E001E000E0FFE7FEF744
S1135A006CFE052001900A20009005231E226421CB
S1135A100220FEF771FE72B63A484AF20261018032
S1135A2038484BF28041018062B63748007800283C
S1135A3008D1FFF72EFA002804D033480121017061
S1135A40FFF75CFA72B62F484AF2026101802D48D2
S1135A504BF28041018062B62D480078002804D1C1
S1135A602C48FFF729FD00F0A5F872B625484AF244
S1135A700261018023484BF28041018062B6FFF746
S1135A80BCFEFCF72BFE1D480078002809D1052038
S1135A900190142000900A231422FA210120FEF719
S1135AA02BFE72B617484AF20261018015484BF288
S1135AB08041018062B61420009028230A223221FA
S1135AC0F020FFF753FF07BD060EFF1F080EFF1F50
S1135AD00A0EFF1F0C0EFF1F0E0EFF1FF20DFF1FFD
S1135AE0100EFF1F110EFF1F120EFF1FF00DFF1FE0
S1135AF09804FF1F08F10F4004F10F40150EFF1F1B
S1135B00180EFF1F0C200540130EFF1FF40DFF1F7E
S1135B101A0EFF1FCF59000081B034480068C0F34B
S1135B20402090F0010031490968C943C90B11F0C4
S1135B30020108432D490968C943090C11F0040105
S1135B4008432A490968C943490C11F0080108436C
S1135B500021ADF8001004E0BDF80010491CADF8B8
S1135B600010BDF800104FF496729142F4D31F490F
S1135B700968C1F3402191F001011C4A1268D24323
S1135B80D20B12F002021143184A1268D243120CCB
S1135B9012F004021143154A1268D243520C12F057
S1135BA00802114380B289B28842B6D180B201B0F2
S1135BB07047704780B50E484FF4817101600D48FD
S1135BC04FF4817101605B20FFF72AFD0A490B4AFB
S1135BD00A600749096851F42021054A1160054902
S1135BE0096851F42021034A116001BD50F00F40AF
S1135BF040D0044060D00440C804FF1FB35B0000E1
S1135C000000000000000000005F0000000007002A
S1135C10070000147F147F1400242A7F2A12002313
S1135C201308646200364955225000000503000041
S1135C3000001C224100000041221C000014083E08
S1135C4008140008083E080800005030000000084E
S1135C500808080800006060000000201008040222
S1135C60003E5149453E0000427F400000426151E0
S1135C704946002141454B31001814127F1000277A
S1135C8045454539003C4A4949300001710905033D
S1135C9000364949493600064949291E000036366E
S1135CA000000000563600000008142241000014D1
S1135CB014141414000041221408000201510906AE
S1135CC000324979413E007E1111117E007F49491D
S1135CD04936003E41414122007F4141221C007F60
S1135CE049494941007F09090901003E4149497A6E
S1135CF0007F0808087F0000417F410000204041E8
S1135D003F01007F08142241007F40404040007F53
S1135D10020C027F007F0408107F003E4141413E97
S1135D20007F09090906003E4151215E007F0919DF
S1135D3029460046494949310001017F0101003FDC
S1135D404040403F001F2040201F003F4038403F5C
S1135D5000631408146300070870080700615149C0
S1135D60454300007F414100000204081020000068
S1135D7041417F00000402010204004040404040D1
S1135D80000001020400002054545478007F484469
S1135D90443800384444442000384444487F0038A0
S1135DA05454541800087E090102000C5252523E09
S1135DB0007F080404780000447D40000020404433
S1135DC03D00007F102844000000417F4000007C1B
S1135DD004180478007C08040478003844444438E7
S1135DE0007C1414140800081414187C007C0804A3
S1135DF0040800485454542000043F444020003C0C
S1135E004040207C001C2040201C003C4030403C92
S1135E10004428102844000C5050503C0044645462
S1135E204C440000083641000000007F00000000E0
S1135E3041360800001008081008007846414678EA
S1135E4056484CF22051018054484DF628110180E7
S1135E50534800884FF6FE71084051490880704746
S1135E6050481C2101705048006850F080504E4941
S1135E7008604E48007850F080004C4908704C4847
S1135E80982101704B480078C006FBD4494800783B
S1135E90C0F38100C0B20228F8D147480321017041
S1135EA0464800210170464800684549096851F494
S1135EB07F01434A11604349434A0A60002100E0DC
S1135EC0491CC9B20429FBD33D4908603B4846211B
S1135ED00170384800788006FBD5364800784006C3
S1135EE0FBD53348007810F03F0031490870314841
S1135EF00078C0F38100C0B20328F8D1704733485A
S1135F00006850F4785031490860704780B5FFF755
S1135F10A7FF2F48007850F080002D49087001BD7C
